{
  "_format": "hh-sol-artifact-1",
  "contractName": "CreationNFT",
  "sourceName": "contracts/CreationNFT.sol",
  "abi": [
    {
      "inputs": [
        {
          "internalType": "string",
          "name": "_name",
          "type": "string"
        },
        {
          "internalType": "string",
          "name": "_symbol",
          "type": "string"
        },
        {
          "internalType": "string",
          "name": "__baseURI",
          "type": "string"
        },
        {
          "components": [
            {
              "internalType": "address",
              "name": "original_element_creator",
              "type": "address"
            },
            {
              "internalType": "address[]",
              "name": "element_creators",
              "type": "address[]"
            },
            {
              "internalType": "address[]",
              "name": "element_quote_element_creators",
              "type": "address[]"
            }
          ],
          "internalType": "struct DistributionStructs.DistributionRoleParams",
          "name": "_distribution_role_params",
          "type": "tuple"
        },
        {
          "internalType": "address",
          "name": "_distribution_policy_address",
          "type": "address"
        }
      ],
      "stateMutability": "nonpayable",
      "type": "constructor"
    },
    {
      "anonymous": false,
      "inputs": [
        {
          "indexed": false,
          "internalType": "address",
          "name": "new_user_address",
          "type": "address"
        }
      ],
      "name": "AddedRewardUser",
      "type": "event"
    },
    {
      "anonymous": false,
      "inputs": [
        {
          "indexed": true,
          "internalType": "address",
          "name": "owner",
          "type": "address"
        },
        {
          "indexed": true,
          "internalType": "address",
          "name": "approved",
          "type": "address"
        },
        {
          "indexed": true,
          "internalType": "uint256",
          "name": "tokenId",
          "type": "uint256"
        }
      ],
      "name": "Approval",
      "type": "event"
    },
    {
      "anonymous": false,
      "inputs": [
        {
          "indexed": true,
          "internalType": "address",
          "name": "owner",
          "type": "address"
        },
        {
          "indexed": true,
          "internalType": "address",
          "name": "operator",
          "type": "address"
        },
        {
          "indexed": false,
          "internalType": "bool",
          "name": "approved",
          "type": "bool"
        }
      ],
      "name": "ApprovalForAll",
      "type": "event"
    },
    {
      "anonymous": false,
      "inputs": [
        {
          "indexed": true,
          "internalType": "address",
          "name": "previousOwner",
          "type": "address"
        },
        {
          "indexed": true,
          "internalType": "address",
          "name": "newOwner",
          "type": "address"
        }
      ],
      "name": "OwnershipTransferred",
      "type": "event"
    },
    {
      "anonymous": false,
      "inputs": [
        {
          "indexed": true,
          "internalType": "address",
          "name": "treasury_address",
          "type": "address"
        },
        {
          "indexed": false,
          "internalType": "uint256",
          "name": "amount",
          "type": "uint256"
        }
      ],
      "name": "RemainingRewardToTreasury",
      "type": "event"
    },
    {
      "anonymous": false,
      "inputs": [
        {
          "indexed": false,
          "internalType": "address",
          "name": "distribution_policy_address",
          "type": "address"
        }
      ],
      "name": "SetDistributionPolicy",
      "type": "event"
    },
    {
      "anonymous": false,
      "inputs": [
        {
          "indexed": true,
          "internalType": "address",
          "name": "from",
          "type": "address"
        },
        {
          "indexed": true,
          "internalType": "address",
          "name": "to",
          "type": "address"
        },
        {
          "indexed": true,
          "internalType": "uint256",
          "name": "tokenId",
          "type": "uint256"
        }
      ],
      "name": "Transfer",
      "type": "event"
    },
    {
      "inputs": [
        {
          "internalType": "address",
          "name": "to",
          "type": "address"
        },
        {
          "internalType": "uint256",
          "name": "tokenId",
          "type": "uint256"
        }
      ],
      "name": "approve",
      "outputs": [],
      "stateMutability": "nonpayable",
      "type": "function"
    },
    {
      "inputs": [
        {
          "internalType": "address",
          "name": "_owner",
          "type": "address"
        },
        {
          "internalType": "address",
          "name": "_spender",
          "type": "address"
        },
        {
          "internalType": "uint256",
          "name": "_tokenId",
          "type": "uint256"
        },
        {
          "internalType": "uint256",
          "name": "_nonce",
          "type": "uint256"
        },
        {
          "internalType": "uint256",
          "name": "_deadline",
          "type": "uint256"
        },
        {
          "internalType": "uint8",
          "name": "_v",
          "type": "uint8"
        },
        {
          "internalType": "bytes32",
          "name": "_r",
          "type": "bytes32"
        },
        {
          "internalType": "bytes32",
          "name": "_s",
          "type": "bytes32"
        }
      ],
      "name": "approveBySig",
      "outputs": [],
      "stateMutability": "nonpayable",
      "type": "function"
    },
    {
      "inputs": [
        {
          "internalType": "address",
          "name": "owner",
          "type": "address"
        }
      ],
      "name": "balanceOf",
      "outputs": [
        {
          "internalType": "uint256",
          "name": "",
          "type": "uint256"
        }
      ],
      "stateMutability": "view",
      "type": "function"
    },
    {
      "inputs": [],
      "name": "baseURI",
      "outputs": [
        {
          "internalType": "string",
          "name": "",
          "type": "string"
        }
      ],
      "stateMutability": "view",
      "type": "function"
    },
    {
      "inputs": [],
      "name": "claimReward",
      "outputs": [],
      "stateMutability": "nonpayable",
      "type": "function"
    },
    {
      "inputs": [],
      "name": "distribution_policy",
      "outputs": [
        {
          "internalType": "contract IDistributionPolicyV1",
          "name": "",
          "type": "address"
        }
      ],
      "stateMutability": "view",
      "type": "function"
    },
    {
      "inputs": [
        {
          "internalType": "uint256",
          "name": "tokenId",
          "type": "uint256"
        }
      ],
      "name": "getApproved",
      "outputs": [
        {
          "internalType": "address",
          "name": "",
          "type": "address"
        }
      ],
      "stateMutability": "view",
      "type": "function"
    },
    {
      "inputs": [
        {
          "internalType": "address",
          "name": "_user",
          "type": "address"
        }
      ],
      "name": "getClaimableRewardAmount",
      "outputs": [
        {
          "internalType": "uint256",
          "name": "",
          "type": "uint256"
        }
      ],
      "stateMutability": "view",
      "type": "function"
    },
    {
      "inputs": [],
      "name": "getDistributionRole",
      "outputs": [
        {
          "components": [
            {
              "internalType": "address",
              "name": "creator",
              "type": "address"
            },
            {
              "internalType": "address",
              "name": "original_element_creator",
              "type": "address"
            },
            {
              "internalType": "address[]",
              "name": "element_creators",
              "type": "address[]"
            },
            {
              "internalType": "address[]",
              "name": "element_quote_element_creators",
              "type": "address[]"
            }
          ],
          "internalType": "struct DistributionStructs.DistributionRole",
          "name": "",
          "type": "tuple"
        }
      ],
      "stateMutability": "view",
      "type": "function"
    },
    {
      "inputs": [
        {
          "internalType": "address",
          "name": "_user_address",
          "type": "address"
        }
      ],
      "name": "getUserRewardData",
      "outputs": [
        {
          "components": [
            {
              "internalType": "address",
              "name": "user_address",
              "type": "address"
            },
            {
              "internalType": "uint256",
              "name": "claimable_amount",
              "type": "uint256"
            },
            {
              "internalType": "uint256",
              "name": "claimed_amount",
              "type": "uint256"
            },
            {
              "internalType": "uint256",
              "name": "last_claimed_at",
              "type": "uint256"
            }
          ],
          "internalType": "struct DistributionStructs.UserRewardData",
          "name": "",
          "type": "tuple"
        }
      ],
      "stateMutability": "view",
      "type": "function"
    },
    {
      "inputs": [
        {
          "internalType": "address",
          "name": "owner",
          "type": "address"
        },
        {
          "internalType": "address",
          "name": "operator",
          "type": "address"
        }
      ],
      "name": "isApprovedForAll",
      "outputs": [
        {
          "internalType": "bool",
          "name": "",
          "type": "bool"
        }
      ],
      "stateMutability": "view",
      "type": "function"
    },
    {
      "inputs": [],
      "name": "maxSupply",
      "outputs": [
        {
          "internalType": "uint256",
          "name": "",
          "type": "uint256"
        }
      ],
      "stateMutability": "pure",
      "type": "function"
    },
    {
      "inputs": [
        {
          "internalType": "address",
          "name": "_to",
          "type": "address"
        },
        {
          "internalType": "uint256",
          "name": "_tokenId",
          "type": "uint256"
        }
      ],
      "name": "mint",
      "outputs": [],
      "stateMutability": "nonpayable",
      "type": "function"
    },
    {
      "inputs": [],
      "name": "name",
      "outputs": [
        {
          "internalType": "string",
          "name": "",
          "type": "string"
        }
      ],
      "stateMutability": "view",
      "type": "function"
    },
    {
      "inputs": [
        {
          "internalType": "address",
          "name": "",
          "type": "address"
        }
      ],
      "name": "nonces",
      "outputs": [
        {
          "internalType": "uint256",
          "name": "",
          "type": "uint256"
        }
      ],
      "stateMutability": "view",
      "type": "function"
    },
    {
      "inputs": [],
      "name": "owner",
      "outputs": [
        {
          "internalType": "address",
          "name": "",
          "type": "address"
        }
      ],
      "stateMutability": "view",
      "type": "function"
    },
    {
      "inputs": [
        {
          "internalType": "uint256",
          "name": "tokenId",
          "type": "uint256"
        }
      ],
      "name": "ownerOf",
      "outputs": [
        {
          "internalType": "address",
          "name": "",
          "type": "address"
        }
      ],
      "stateMutability": "view",
      "type": "function"
    },
    {
      "inputs": [],
      "name": "renounceOwnership",
      "outputs": [],
      "stateMutability": "nonpayable",
      "type": "function"
    },
    {
      "inputs": [
        {
          "internalType": "uint256",
          "name": "_tokenId",
          "type": "uint256"
        },
        {
          "internalType": "uint256",
          "name": "_salePrice",
          "type": "uint256"
        }
      ],
      "name": "royaltyInfo",
      "outputs": [
        {
          "internalType": "address",
          "name": "",
          "type": "address"
        },
        {
          "internalType": "uint256",
          "name": "",
          "type": "uint256"
        }
      ],
      "stateMutability": "view",
      "type": "function"
    },
    {
      "inputs": [
        {
          "internalType": "address",
          "name": "from",
          "type": "address"
        },
        {
          "internalType": "address",
          "name": "to",
          "type": "address"
        },
        {
          "internalType": "uint256",
          "name": "tokenId",
          "type": "uint256"
        }
      ],
      "name": "safeTransferFrom",
      "outputs": [],
      "stateMutability": "nonpayable",
      "type": "function"
    },
    {
      "inputs": [
        {
          "internalType": "address",
          "name": "from",
          "type": "address"
        },
        {
          "internalType": "address",
          "name": "to",
          "type": "address"
        },
        {
          "internalType": "uint256",
          "name": "tokenId",
          "type": "uint256"
        },
        {
          "internalType": "bytes",
          "name": "data",
          "type": "bytes"
        }
      ],
      "name": "safeTransferFrom",
      "outputs": [],
      "stateMutability": "nonpayable",
      "type": "function"
    },
    {
      "inputs": [
        {
          "internalType": "address",
          "name": "operator",
          "type": "address"
        },
        {
          "internalType": "bool",
          "name": "approved",
          "type": "bool"
        }
      ],
      "name": "setApprovalForAll",
      "outputs": [],
      "stateMutability": "nonpayable",
      "type": "function"
    },
    {
      "inputs": [
        {
          "internalType": "address",
          "name": "_distribution_policy_address",
          "type": "address"
        }
      ],
      "name": "setDistributionPolicy",
      "outputs": [],
      "stateMutability": "nonpayable",
      "type": "function"
    },
    {
      "inputs": [
        {
          "internalType": "bytes4",
          "name": "interfaceId",
          "type": "bytes4"
        }
      ],
      "name": "supportsInterface",
      "outputs": [
        {
          "internalType": "bool",
          "name": "",
          "type": "bool"
        }
      ],
      "stateMutability": "view",
      "type": "function"
    },
    {
      "inputs": [],
      "name": "symbol",
      "outputs": [
        {
          "internalType": "string",
          "name": "",
          "type": "string"
        }
      ],
      "stateMutability": "view",
      "type": "function"
    },
    {
      "inputs": [
        {
          "internalType": "uint256",
          "name": "index",
          "type": "uint256"
        }
      ],
      "name": "tokenByIndex",
      "outputs": [
        {
          "internalType": "uint256",
          "name": "",
          "type": "uint256"
        }
      ],
      "stateMutability": "view",
      "type": "function"
    },
    {
      "inputs": [
        {
          "internalType": "address",
          "name": "owner",
          "type": "address"
        },
        {
          "internalType": "uint256",
          "name": "index",
          "type": "uint256"
        }
      ],
      "name": "tokenOfOwnerByIndex",
      "outputs": [
        {
          "internalType": "uint256",
          "name": "",
          "type": "uint256"
        }
      ],
      "stateMutability": "view",
      "type": "function"
    },
    {
      "inputs": [
        {
          "internalType": "uint256",
          "name": "tokenId",
          "type": "uint256"
        }
      ],
      "name": "tokenURI",
      "outputs": [
        {
          "internalType": "string",
          "name": "",
          "type": "string"
        }
      ],
      "stateMutability": "view",
      "type": "function"
    },
    {
      "inputs": [],
      "name": "totalSupply",
      "outputs": [
        {
          "internalType": "uint256",
          "name": "",
          "type": "uint256"
        }
      ],
      "stateMutability": "view",
      "type": "function"
    },
    {
      "inputs": [
        {
          "internalType": "address",
          "name": "from",
          "type": "address"
        },
        {
          "internalType": "address",
          "name": "to",
          "type": "address"
        },
        {
          "internalType": "uint256",
          "name": "tokenId",
          "type": "uint256"
        }
      ],
      "name": "transferFrom",
      "outputs": [],
      "stateMutability": "nonpayable",
      "type": "function"
    },
    {
      "inputs": [
        {
          "internalType": "address",
          "name": "_newOwner",
          "type": "address"
        }
      ],
      "name": "transferOwnership",
      "outputs": [],
      "stateMutability": "nonpayable",
      "type": "function"
    },
    {
      "inputs": [],
      "name": "version",
      "outputs": [
        {
          "internalType": "uint8",
          "name": "",
          "type": "uint8"
        }
      ],
      "stateMutability": "view",
      "type": "function"
    },
    {
      "stateMutability": "payable",
      "type": "receive"
    }
  ],
  "bytecode": "0x60806040523480156200001157600080fd5b5060405162003e8938038062003e89833981016040819052620000349162000a6b565b8484600062000044838262000c33565b50600162000053828262000c33565b505050620000706200006a6200029a60201b60201c565b6200029e565b6001600d55600e62000083848262000c33565b5062000091336000620002f0565b601380546001600160a01b0319166001600160a01b0383161790556040820151516020830151518114620001675760405162461bcd60e51b815260206004820152606660248201527f4372656174696f6e4e46543a20656c656d656e745f63726561746f7273206c6560448201527f6e677468206d757374206265206772656174657220616e6420657175616c207460648201527f6f20656c656d656e745f71756f74655f656c656d656e745f63726561746f72206084820152650d8cadccee8d60d31b60a482015260c4015b60405180910390fd5b600f8054336001600160a01b0319918216179091558351601080549092166001600160a01b039091161790556020808401518051620001ab9260119201906200083b565b50806001600160401b03811115620001c757620001c7620008bc565b604051908082528060200260200182016040528015620001f1578160200160208202803683370190505b50805162000208916012916020909101906200083b565b5060005b818110156200028d57836040015181815181106200022e576200022e62000cff565b6020026020010151600f60030182815481106200024f576200024f62000cff565b600091825260209091200180546001600160a01b0319166001600160a01b039290921691909117905580620002848162000d2b565b9150506200020c565b5050505050505062000d79565b3390565b600c80546001600160a01b038381166001600160a01b0319831681179093556040519116919082907f8be0079c531659141344cd1fd0a4f28419497f9722a3daafe3b4186f6b6457e090600090a35050565b6001600160a01b038216620003485760405162461bcd60e51b815260206004820181905260248201527f4552433732313a206d696e7420746f20746865207a65726f206164647265737360448201526064016200015e565b6000818152600260205260409020546001600160a01b031615620003af5760405162461bcd60e51b815260206004820152601c60248201527f4552433732313a20746f6b656e20616c7265616479206d696e7465640000000060448201526064016200015e565b620003bf60008383600162000491565b6000818152600260205260409020546001600160a01b031615620004265760405162461bcd60e51b815260206004820152601c60248201527f4552433732313a20746f6b656e20616c7265616479206d696e7465640000000060448201526064016200015e565b6001600160a01b038216600081815260036020908152604080832080546001019055848352600290915280822080546001600160a01b0319168417905551839291907fddf252ad1be2c89b69c2b068fc378daa952ba7f163c4a11628f55a4df523b3ef908290a45050565b620004aa84848484620005f560201b6200132f1760201c565b6001811115620005235760405162461bcd60e51b815260206004820152603560248201527f455243373231456e756d657261626c653a20636f6e736563757469766520747260448201527f616e7366657273206e6f7420737570706f72746564000000000000000000000060648201526084016200015e565b816001600160a01b03851662000582576200057c81600880546000838152600960205260408120829055600182018355919091527ff3f7a9fe364faab93b216da50a3214154f22a0a2b415b23a84c8169e8b636ee30155565b620005a8565b836001600160a01b0316856001600160a01b031614620005a857620005a88582620005fb565b6001600160a01b038416620005c857620005c281620006a8565b620005ee565b846001600160a01b0316846001600160a01b031614620005ee57620005ee848262000762565b5050505050565b50505050565b600060016200061584620007b360201b6200102c1760201c565b62000621919062000d47565b60008381526007602052604090205490915080821462000675576001600160a01b03841660009081526006602090815260408083208584528252808320548484528184208190558352600790915290208190555b5060009182526007602090815260408084208490556001600160a01b039094168352600681528383209183525290812055565b600854600090620006bc9060019062000d47565b60008381526009602052604081205460088054939450909284908110620006e757620006e762000cff565b9060005260206000200154905080600883815481106200070b576200070b62000cff565b600091825260208083209091019290925582815260099091526040808220849055858252812055600880548062000746576200074662000d63565b6001900381819060005260206000200160009055905550505050565b60006200077a83620007b360201b6200102c1760201c565b6001600160a01b039093166000908152600660209081526040808320868452825280832085905593825260079052919091209190915550565b60006001600160a01b0382166200081f5760405162461bcd60e51b815260206004820152602960248201527f4552433732313a2061646472657373207a65726f206973206e6f7420612076616044820152683634b21037bbb732b960b91b60648201526084016200015e565b506001600160a01b031660009081526003602052604090205490565b82805482825590600052602060002090810192821562000893579160200282015b828111156200089357825182546001600160a01b0319166001600160a01b039091161782556020909201916001909101906200085c565b50620008a1929150620008a5565b5090565b5b80821115620008a15760008155600101620008a6565b634e487b7160e01b600052604160045260246000fd5b604051606081016001600160401b0381118282101715620008f757620008f7620008bc565b60405290565b604051601f8201601f191681016001600160401b0381118282101715620009285762000928620008bc565b604052919050565b600082601f8301126200094257600080fd5b81516001600160401b038111156200095e576200095e620008bc565b602062000974601f8301601f19168201620008fd565b82815285828487010111156200098957600080fd5b60005b83811015620009a95785810183015182820184015282016200098c565b506000928101909101919091529392505050565b80516001600160a01b0381168114620009d557600080fd5b919050565b600082601f830112620009ec57600080fd5b815160206001600160401b0382111562000a0a5762000a0a620008bc565b8160051b62000a1b828201620008fd565b928352848101820192828101908785111562000a3657600080fd5b83870192505b8483101562000a605762000a5083620009bd565b8252918301919083019062000a3c565b979650505050505050565b600080600080600060a0868803121562000a8457600080fd5b85516001600160401b038082111562000a9c57600080fd5b62000aaa89838a0162000930565b9650602088015191508082111562000ac157600080fd5b62000acf89838a0162000930565b9550604088015191508082111562000ae657600080fd5b62000af489838a0162000930565b9450606088015191508082111562000b0b57600080fd5b908701906060828a03121562000b2057600080fd5b62000b2a620008d2565b62000b3583620009bd565b815260208301518281111562000b4a57600080fd5b62000b588b828601620009da565b60208301525060408301518281111562000b7157600080fd5b62000b7f8b828601620009da565b604083015250935062000b9891505060808701620009bd565b90509295509295909350565b600181811c9082168062000bb957607f821691505b60208210810362000bda57634e487b7160e01b600052602260045260246000fd5b50919050565b601f82111562000c2e57600081815260208120601f850160051c8101602086101562000c095750805b601f850160051c820191505b8181101562000c2a5782815560010162000c15565b5050505b505050565b81516001600160401b0381111562000c4f5762000c4f620008bc565b62000c678162000c60845462000ba4565b8462000be0565b602080601f83116001811462000c9f576000841562000c865750858301515b600019600386901b1c1916600185901b17855562000c2a565b600085815260208120601f198616915b8281101562000cd05788860151825594840194600190910190840162000caf565b508582101562000cef5787850151600019600388901b60f8161c191681555b5050505050600190811b01905550565b634e487b7160e01b600052603260045260246000fd5b634e487b7160e01b600052601160045260246000fd5b60006001820162000d405762000d4062000d15565b5060010190565b8181038181111562000d5d5762000d5d62000d15565b92915050565b634e487b7160e01b600052603160045260246000fd5b6131008062000d896000396000f3fe6080604052600436106101e75760003560e01c8063715018a611610102578063c06dfe6c11610095578063d5abeb0111610064578063d5abeb01146105ca578063dc187b69146105df578063e985e9c51461063b578063f2fde38b1461068457600080fd5b8063c06dfe6c1461054a578063c470d0f01461056a578063c87b56dd1461058a578063d0057edb146105aa57600080fd5b8063a22cb465116100d1578063a22cb465146104d3578063a4b0dbcf146104f3578063b88a802f14610515578063b88d4fde1461052a57600080fd5b8063715018a61461045e5780637ecebe00146104735780638da5cb5b146104a057806395d89b41146104be57600080fd5b80632f745c591161017a57806354fd4d501161014957806354fd4d50146103e25780636352211e146104095780636c0360eb1461042957806370a082311461043e57600080fd5b80632f745c591461036257806340c10f191461038257806342842e0e146103a25780634f6ccce7146103c257600080fd5b806318160ddd116101b657806318160ddd146102ab57806323b872dd146102ca57806328512aa5146102ea5780632a55205a1461032357600080fd5b806301ffc9a7146101fc57806306fdde0314610231578063081812fc14610253578063095ea7b31461028b57600080fd5b366101f7576101f5346106a4565b005b600080fd5b34801561020857600080fd5b5061021c6102173660046127d3565b610a79565b60405190151581526020015b60405180910390f35b34801561023d57600080fd5b50610246610ada565b6040516102289190612840565b34801561025f57600080fd5b5061027361026e366004612853565b610b6c565b6040516001600160a01b039091168152602001610228565b34801561029757600080fd5b506101f56102a6366004612881565b610b93565b3480156102b757600080fd5b506008545b604051908152602001610228565b3480156102d657600080fd5b506101f56102e53660046128ad565b610ca8565b3480156102f657600080fd5b506102bc6103053660046128ee565b6001600160a01b031660009081526014602052604090206001015490565b34801561032f57600080fd5b5061034361033e36600461290b565b610cd9565b604080516001600160a01b039093168352602083019190915201610228565b34801561036e57600080fd5b506102bc61037d366004612881565b610d8b565b34801561038e57600080fd5b506101f561039d366004612881565b610e21565b3480156103ae57600080fd5b506101f56103bd3660046128ad565b610f0f565b3480156103ce57600080fd5b506102bc6103dd366004612853565b610f2a565b3480156103ee57600080fd5b506103f7600181565b60405160ff9091168152602001610228565b34801561041557600080fd5b50610273610424366004612853565b610fbd565b34801561043557600080fd5b5061024661101d565b34801561044a57600080fd5b506102bc6104593660046128ee565b61102c565b34801561046a57600080fd5b506101f56110b2565b34801561047f57600080fd5b506102bc61048e3660046128ee565b60166020526000908152604090205481565b3480156104ac57600080fd5b50600c546001600160a01b0316610273565b3480156104ca57600080fd5b506102466110c6565b3480156104df57600080fd5b506101f56104ee36600461292d565b6110d5565b3480156104ff57600080fd5b506105086110e0565b60405161022891906129af565b34801561052157600080fd5b506101f56111e9565b34801561053657600080fd5b506101f5610545366004612a58565b6112fd565b34801561055657600080fd5b506101f5610565366004612b1c565b611335565b34801561057657600080fd5b506101f56105853660046128ee565b6116b3565b34801561059657600080fd5b506102466105a5366004612853565b61178c565b3480156105b657600080fd5b50601354610273906001600160a01b031681565b3480156105d657600080fd5b506127106102bc565b3480156105eb57600080fd5b506105ff6105fa3660046128ee565b6117f3565b604051610228919081516001600160a01b0316815260208083015190820152604080830151908201526060918201519181019190915260800190565b34801561064757600080fd5b5061021c610656366004612b9c565b6001600160a01b03918216600090815260056020908152604080832093909416825291909152205460ff1690565b34801561069057600080fd5b506101f561069f3660046128ee565b611878565b6013546040516316bc60b560e11b815260609182916001600160a01b0390911690632d78c16a906106dc90600f908790600401612c08565b600060405180830381865afa1580156106f9573d6000803e3d6000fd5b505050506040513d6000823e601f3d908101601f191682016040526107219190810190612cfc565b90925090506000805b82518110156108335760006001600160a01b031684828151811061075057610750612dc1565b60200260200101516001600160a01b031603156108215782818151811061077957610779612dc1565b60200260200101516014600086848151811061079757610797612dc1565b60200260200101516001600160a01b03166001600160a01b0316815260200190815260200160002060010160008282546107d19190612ded565b925050819055508281815181106107ea576107ea612dc1565b6020026020010151826107fd9190612ded565b915061082184828151811061081457610814612dc1565b6020026020010151611914565b8061082b81612e00565b91505061072a565b50838111156108bd5760405162461bcd60e51b815260206004820152604560248201527f4372656174696f6e4e46543a205f63756d6d756c617465645f616d6f756e742060448201527f6d757374206265206c657373207468616e206f7220657175616c20746f205f616064820152641b5bdd5b9d60da1b608482015260a4015b60405180910390fd5b60006108c98286612e19565b90508015610a6a57601354604080516361d027b360e01b815290516000926001600160a01b0316916361d027b39160048083019260209291908290030181865afa15801561091b573d6000803e3d6000fd5b505050506040513d601f19601f8201168201806040525081019061093f9190612e2c565b6001600160a01b03168260405160006040518083038185875af1925050503d8060008114610989576040519150601f19603f3d011682016040523d82523d6000602084013e61098e565b606091505b50509050806109af5760405162461bcd60e51b81526004016108b490612e49565b601360009054906101000a90046001600160a01b03166001600160a01b03166361d027b36040518163ffffffff1660e01b8152600401602060405180830381865afa158015610a02573d6000803e3d6000fd5b505050506040513d601f19601f82011682018060405250810190610a269190612e2c565b6001600160a01b03167f6fbc4efdd07c2454bc7b008b1914cad3c19ba159fc381280fb8ca65ff9d7e3d883604051610a6091815260200190565b60405180910390a2505b610a72611a26565b5050505050565b60006001600160e01b0319821663301b7f9b60e21b1480610aaa57506001600160e01b0319821663152a902d60e11b145b80610ac557506001600160e01b03198216631e7c553160e21b145b80610ad45750610ad482611b16565b92915050565b606060008054610ae990612ea6565b80601f0160208091040260200160405190810160405280929190818152602001828054610b1590612ea6565b8015610b625780601f10610b3757610100808354040283529160200191610b62565b820191906000526020600020905b815481529060010190602001808311610b4557829003601f168201915b5050505050905090565b6000610b7782611b3b565b506000908152600460205260409020546001600160a01b031690565b6000610b9e82610fbd565b9050806001600160a01b0316836001600160a01b031603610c0b5760405162461bcd60e51b815260206004820152602160248201527f4552433732313a20617070726f76616c20746f2063757272656e74206f776e656044820152603960f91b60648201526084016108b4565b336001600160a01b0382161480610c275750610c278133610656565b610c995760405162461bcd60e51b815260206004820152603d60248201527f4552433732313a20617070726f76652063616c6c6572206973206e6f7420746f60448201527f6b656e206f776e6572206f7220617070726f76656420666f7220616c6c00000060648201526084016108b4565b610ca38383611b9d565b505050565b610cb23382611c0b565b610cce5760405162461bcd60e51b81526004016108b490612ee0565b610ca3838383611c8a565b6000806000601360009054906101000a90046001600160a01b03166001600160a01b031663c0a8f01e6040518163ffffffff1660e01b8152600401602060405180830381865afa158015610d31573d6000803e3d6000fd5b505050506040513d601f19601f82011682018060405250810190610d559190612f2d565b90506000612710610d746bffffffffffffffffffffffff841687612f5b565b610d7e9190612f72565b3097909650945050505050565b6000610d968361102c565b8210610df85760405162461bcd60e51b815260206004820152602b60248201527f455243373231456e756d657261626c653a206f776e657220696e646578206f7560448201526a74206f6620626f756e647360a81b60648201526084016108b4565b506001600160a01b03919091166000908152600660209081526040808320938352929052205490565b610e29611dfb565b6127108110610e945760405162461bcd60e51b815260206004820152603160248201527f4372656174696f6e4e46543a20746f6b656e4964206d757374206265206c657360448201527073207468616e206d617820737570706c7960781b60648201526084016108b4565b6008548114610f015760405162461bcd60e51b815260206004820152603360248201527f4372656174696f6e4e46543a20746f6b656e4964206973206e65656420746f20604482015272657175616c20746f74616c537570706c79282960681b60648201526084016108b4565b610f0b8282611e55565b5050565b610ca3838383604051806020016040528060008152506112fd565b6000610f3560085490565b8210610f985760405162461bcd60e51b815260206004820152602c60248201527f455243373231456e756d657261626c653a20676c6f62616c20696e646578206f60448201526b7574206f6620626f756e647360a01b60648201526084016108b4565b60088281548110610fab57610fab612dc1565b90600052602060002001549050919050565b6000818152600260205260408120546001600160a01b031680610ad45760405162461bcd60e51b8152602060048201526018602482015277115490cdcc8c4e881a5b9d985b1a59081d1bdad95b88125160421b60448201526064016108b4565b6060611027611fee565b905090565b60006001600160a01b0382166110965760405162461bcd60e51b815260206004820152602960248201527f4552433732313a2061646472657373207a65726f206973206e6f7420612076616044820152683634b21037bbb732b960b91b60648201526084016108b4565b506001600160a01b031660009081526003602052604090205490565b6110ba611dfb565b6110c46000611ffd565b565b606060018054610ae990612ea6565b610f0b33838361204f565b6040805160808082018352600080835260208084019190915260608385018190528084015283519182018452600f80546001600160a01b039081168452601054168383015260118054865181850281018501885281815295969495929486019383018282801561117957602002820191906000526020600020905b81546001600160a01b0316815260019091019060200180831161115b575b50505050508152602001600382018054806020026020016040519081016040528092919081815260200182805480156111db57602002820191906000526020600020905b81546001600160a01b031681526001909101906020018083116111bd575b505050505081525050905090565b6111f161211d565b336000908152601460205260409020600101548061126f5760405162461bcd60e51b815260206004820152603560248201527f4372656174696f6e4e46543a205f636c61696d61626c655f616d6f756e74206d60448201527407573742062652067726561746572207468616e203605c1b60648201526084016108b4565b336000818152601460205260408082206001018290555190919083908381818185875af1925050503d80600081146112c3576040519150601f19603f3d011682016040523d82523d6000602084013e6112c8565b606091505b50509050806112e95760405162461bcd60e51b81526004016108b490612e49565b6112f1611a26565b50506110c46001600d55565b6113073383611c0b565b6113235760405162461bcd60e51b81526004016108b490612ee0565b61132f84848484612176565b50505050565b6001600160a01b03881661139b5760405162461bcd60e51b815260206004820152602760248201527f4372656174696f6e4e46543a205f6f776e657220697320746865207a65726f206044820152666164647265737360c81b60648201526084016108b4565b6001600160a01b0387166114035760405162461bcd60e51b815260206004820152602960248201527f4372656174696f6e4e46543a205f7370656e64657220697320746865207a65726044820152686f206164647265737360b81b60648201526084016108b4565b876001600160a01b031661141687610fbd565b6001600160a01b0316146114825760405162461bcd60e51b815260206004820152602d60248201527f4372656174696f6e4e46543a205f6f776e657220646f206e6f74206f776e656460448201526c081d1a194817dd1bdad95b9259609a1b60648201526084016108b4565b834211156114d25760405162461bcd60e51b815260206004820152601b60248201527f4372656174696f6e4e46543a205065726d69742065787069726564000000000060448201526064016108b4565b6001600160a01b03881660009081526016602052604090205485146115395760405162461bcd60e51b815260206004820152601a60248201527f4372656174696f6e4e46543a20696e76616c6964206e6f6e636500000000000060448201526064016108b4565b6001600160a01b038816600090815260166020526040812080547f48d39b37a35214940203bbbd4f383519797769b13d936f387d89430afef27688929183918c918c918c918661158883612e00565b909155506040805160208101969096526001600160a01b0394851690860152929091166060840152608083015260a082015260c0810187905260e00160408051601f198184030181528282528051602091820120600080855291840180845281905260ff89169284019290925260608301879052608083018690529092509060019060a0016020604051602081039080840390855afa15801561162f573d6000803e3d6000fd5b5050506020604051035190508a6001600160a01b0316816001600160a01b03161461169c5760405162461bcd60e51b815260206004820152601e60248201527f4372656174696f6e4e46543a20696e76616c6964207369676e6174757265000060448201526064016108b4565b6116a68a8a611b9d565b5050505050505050505050565b6116bb611dfb565b6001600160a01b0381163b6117385760405162461bcd60e51b815260206004820152603960248201527f4372656174696f6e4e46543a205f646973747269627574696f6e5f706f6c696360448201527f795f61646472657373206973206e6f7420636f6e74726163740000000000000060648201526084016108b4565b601380546001600160a01b0319166001600160a01b0383169081179091556040519081527f52851da3532dada16dedc76f071086ca36d3d36c0e2ecc0425b608eeb31865a49060200160405180910390a150565b606061179782611b3b565b60006117a1611fee565b905060008151116117c157604051806020016040528060008152506117ec565b806117cb846121a9565b6040516020016117dc929190612f94565b6040516020818303038152906040525b9392505050565b611827604051806080016040528060006001600160a01b031681526020016000815260200160008152602001600081525090565b506001600160a01b0390811660009081526014602090815260409182902082516080810184528154909416845260018101549184019190915260028101549183019190915260030154606082015290565b611880611dfb565b6001600160a01b0381166118e95760405162461bcd60e51b815260206004820152602a60248201527f4372656174696f6e4e46543a206e6577206f776e657220697320746865207a65604482015269726f206164647265737360b01b60648201526084016108b4565b6118f28161223c565b600f80546001600160a01b0319166001600160a01b0392909216919091179055565b6001600160a01b0381166119795760405162461bcd60e51b815260206004820152602660248201527f4372656174696f6e4e46543a205f7573657220697320746865207a65726f206160448201526564647265737360d01b60648201526084016108b4565b60005b6015548110156119d357816001600160a01b0316601582815481106119a3576119a3612dc1565b6000918252602090912001546001600160a01b0316036119c1575050565b806119cb81612e00565b91505061197c565b50601580546001810182556000919091527f55f448fdea98c4d29eb340757ef0a66cd03dbb9538908a6a81d96026b71ec4750180546001600160a01b0319166001600160a01b0392909216919091179055565b476000805b601554811015611a92576014600060158381548110611a4c57611a4c612dc1565b60009182526020808320909101546001600160a01b03168352820192909252604001902060010154611a7e9083612ded565b915080611a8a81612e00565b915050611a2b565b50808214610f0b5760405162461bcd60e51b8152602060048201526044602482018190527f4372656174696f6e4e46543a205f62616c616e63655f696e5f636f6e74726163908201527f74206d75737420626520657175616c20746f205f62616c616e63655f696e5f756064820152637365727360e01b608482015260a4016108b4565b60006001600160e01b0319821663152a902d60e11b1480610ad45750610ad4826122b2565b6000818152600260205260409020546001600160a01b0316611b9a5760405162461bcd60e51b8152602060048201526018602482015277115490cdcc8c4e881a5b9d985b1a59081d1bdad95b88125160421b60448201526064016108b4565b50565b600081815260046020526040902080546001600160a01b0319166001600160a01b0384169081179091558190611bd282610fbd565b6001600160a01b03167f8c5be1e5ebec7d5bd14f71427d1e84f3dd0314c0f7b2291e5b200ac8c7c3b92560405160405180910390a45050565b600080611c1783610fbd565b9050806001600160a01b0316846001600160a01b03161480611c5e57506001600160a01b0380821660009081526005602090815260408083209388168352929052205460ff165b80611c825750836001600160a01b0316611c7784610b6c565b6001600160a01b0316145b949350505050565b826001600160a01b0316611c9d82610fbd565b6001600160a01b031614611cc35760405162461bcd60e51b81526004016108b490612fc3565b6001600160a01b038216611d255760405162461bcd60e51b8152602060048201526024808201527f4552433732313a207472616e7366657220746f20746865207a65726f206164646044820152637265737360e01b60648201526084016108b4565b611d3283838360016122d7565b826001600160a01b0316611d4582610fbd565b6001600160a01b031614611d6b5760405162461bcd60e51b81526004016108b490612fc3565b600081815260046020908152604080832080546001600160a01b03199081169091556001600160a01b0387811680865260038552838620805460001901905590871680865283862080546001019055868652600290945282852080549092168417909155905184937fddf252ad1be2c89b69c2b068fc378daa952ba7f163c4a11628f55a4df523b3ef91a4505050565b600c546001600160a01b031633146110c45760405162461bcd60e51b815260206004820181905260248201527f4f776e61626c653a2063616c6c6572206973206e6f7420746865206f776e657260448201526064016108b4565b6001600160a01b038216611eab5760405162461bcd60e51b815260206004820181905260248201527f4552433732313a206d696e7420746f20746865207a65726f206164647265737360448201526064016108b4565b6000818152600260205260409020546001600160a01b031615611f105760405162461bcd60e51b815260206004820152601c60248201527f4552433732313a20746f6b656e20616c7265616479206d696e7465640000000060448201526064016108b4565b611f1e6000838360016122d7565b6000818152600260205260409020546001600160a01b031615611f835760405162461bcd60e51b815260206004820152601c60248201527f4552433732313a20746f6b656e20616c7265616479206d696e7465640000000060448201526064016108b4565b6001600160a01b038216600081815260036020908152604080832080546001019055848352600290915280822080546001600160a01b0319168417905551839291907fddf252ad1be2c89b69c2b068fc378daa952ba7f163c4a11628f55a4df523b3ef908290a45050565b6060600e8054610ae990612ea6565b600c80546001600160a01b038381166001600160a01b0319831681179093556040519116919082907f8be0079c531659141344cd1fd0a4f28419497f9722a3daafe3b4186f6b6457e090600090a35050565b816001600160a01b0316836001600160a01b0316036120b05760405162461bcd60e51b815260206004820152601960248201527f4552433732313a20617070726f766520746f2063616c6c65720000000000000060448201526064016108b4565b6001600160a01b03838116600081815260056020908152604080832094871680845294825291829020805460ff191686151590811790915591519182527f17307eab39ab6107e8899845ad3d59bd9653f200f220920489ca2b5937696c31910160405180910390a3505050565b6002600d540361216f5760405162461bcd60e51b815260206004820152601f60248201527f5265656e7472616e637947756172643a207265656e7472616e742063616c6c0060448201526064016108b4565b6002600d55565b612181848484611c8a565b61218d84848484612404565b61132f5760405162461bcd60e51b81526004016108b490613008565b606060006121b683612505565b600101905060008167ffffffffffffffff8111156121d6576121d6612a11565b6040519080825280601f01601f191660200182016040528015612200576020820181803683370190505b5090508181016020015b600019016f181899199a1a9b1b9c1cb0b131b232b360811b600a86061a8153600a850494508461220a57509392505050565b612244611dfb565b6001600160a01b0381166122a95760405162461bcd60e51b815260206004820152602660248201527f4f776e61626c653a206e6577206f776e657220697320746865207a65726f206160448201526564647265737360d01b60648201526084016108b4565b611b9a81611ffd565b60006001600160e01b0319821663780e9d6360e01b1480610ad45750610ad4826125dd565b60018111156123465760405162461bcd60e51b815260206004820152603560248201527f455243373231456e756d657261626c653a20636f6e7365637574697665207472604482015274185b9cd9995c9cc81b9bdd081cdd5c1c1bdc9d1959605a1b60648201526084016108b4565b816001600160a01b0385166123a25761239d81600880546000838152600960205260408120829055600182018355919091527ff3f7a9fe364faab93b216da50a3214154f22a0a2b415b23a84c8169e8b636ee30155565b6123c5565b836001600160a01b0316856001600160a01b0316146123c5576123c5858261262d565b6001600160a01b0384166123e1576123dc816126ca565b610a72565b846001600160a01b0316846001600160a01b031614610a7257610a728482612779565b60006001600160a01b0384163b156124fa57604051630a85bd0160e11b81526001600160a01b0385169063150b7a029061244890339089908890889060040161305a565b6020604051808303816000875af1925050508015612483575060408051601f3d908101601f1916820190925261248091810190613097565b60015b6124e0573d8080156124b1576040519150601f19603f3d011682016040523d82523d6000602084013e6124b6565b606091505b5080516000036124d85760405162461bcd60e51b81526004016108b490613008565b805181602001fd5b6001600160e01b031916630a85bd0160e11b149050611c82565b506001949350505050565b60008072184f03e93ff9f4daa797ed6e38ed64bf6a1f0160401b83106125445772184f03e93ff9f4daa797ed6e38ed64bf6a1f0160401b830492506040015b6d04ee2d6d415b85acef81000000008310612570576d04ee2d6d415b85acef8100000000830492506020015b662386f26fc10000831061258e57662386f26fc10000830492506010015b6305f5e10083106125a6576305f5e100830492506008015b61271083106125ba57612710830492506004015b606483106125cc576064830492506002015b600a8310610ad45760010192915050565b60006001600160e01b031982166380ac58cd60e01b148061260e57506001600160e01b03198216635b5e139f60e01b145b80610ad457506301ffc9a760e01b6001600160e01b0319831614610ad4565b6000600161263a8461102c565b6126449190612e19565b600083815260076020526040902054909150808214612697576001600160a01b03841660009081526006602090815260408083208584528252808320548484528184208190558352600790915290208190555b5060009182526007602090815260408084208490556001600160a01b039094168352600681528383209183525290812055565b6008546000906126dc90600190612e19565b6000838152600960205260408120546008805493945090928490811061270457612704612dc1565b90600052602060002001549050806008838154811061272557612725612dc1565b600091825260208083209091019290925582815260099091526040808220849055858252812055600880548061275d5761275d6130b4565b6001900381819060005260206000200160009055905550505050565b60006127848361102c565b6001600160a01b039093166000908152600660209081526040808320868452825280832085905593825260079052919091209190915550565b6001600160e01b031981168114611b9a57600080fd5b6000602082840312156127e557600080fd5b81356117ec816127bd565b60005b8381101561280b5781810151838201526020016127f3565b50506000910152565b6000815180845261282c8160208601602086016127f0565b601f01601f19169290920160200192915050565b6020815260006117ec6020830184612814565b60006020828403121561286557600080fd5b5035919050565b6001600160a01b0381168114611b9a57600080fd5b6000806040838503121561289457600080fd5b823561289f8161286c565b946020939093013593505050565b6000806000606084860312156128c257600080fd5b83356128cd8161286c565b925060208401356128dd8161286c565b929592945050506040919091013590565b60006020828403121561290057600080fd5b81356117ec8161286c565b6000806040838503121561291e57600080fd5b50508035926020909101359150565b6000806040838503121561294057600080fd5b823561294b8161286c565b91506020830135801515811461296057600080fd5b809150509250929050565b600081518084526020808501945080840160005b838110156129a45781516001600160a01b03168752958201959082019060010161297f565b509495945050505050565b60208152600060018060a01b03808451166020840152806020850151166040840152506040830151608060608401526129eb60a084018261296b565b90506060840151601f19848303016080850152612a08828261296b565b95945050505050565b634e487b7160e01b600052604160045260246000fd5b604051601f8201601f1916810167ffffffffffffffff81118282101715612a5057612a50612a11565b604052919050565b60008060008060808587031215612a6e57600080fd5b8435612a798161286c565b9350602085810135612a8a8161286c565b935060408601359250606086013567ffffffffffffffff80821115612aae57600080fd5b818801915088601f830112612ac257600080fd5b813581811115612ad457612ad4612a11565b612ae6601f8201601f19168501612a27565b91508082528984828501011115612afc57600080fd5b808484018584013760008482840101525080935050505092959194509250565b600080600080600080600080610100898b031215612b3957600080fd5b8835612b448161286c565b97506020890135612b548161286c565b965060408901359550606089013594506080890135935060a089013560ff81168114612b7f57600080fd5b979a969950949793969295929450505060c08201359160e0013590565b60008060408385031215612baf57600080fd5b8235612bba8161286c565b915060208301356129608161286c565b6000815480845260208085019450836000528060002060005b838110156129a45781546001600160a01b031687529582019560019182019101612be3565b604080825283546001600160a01b039081169183019190915260018401541660608201526080808201526000612c4460c0830160028601612bca565b828103603f190160a0840152612c5d8160038701612bca565b9150508260208301529392505050565b600067ffffffffffffffff821115612c8757612c87612a11565b5060051b60200190565b600082601f830112612ca257600080fd5b81516020612cb7612cb283612c6d565b612a27565b82815260059290921b84018101918181019086841115612cd657600080fd5b8286015b84811015612cf15780518352918301918301612cda565b509695505050505050565b60008060408385031215612d0f57600080fd5b825167ffffffffffffffff80821115612d2757600080fd5b818501915085601f830112612d3b57600080fd5b81516020612d4b612cb283612c6d565b82815260059290921b84018101918181019089841115612d6a57600080fd5b948201945b83861015612d91578551612d828161286c565b82529482019490820190612d6f565b91880151919650909350505080821115612daa57600080fd5b50612db785828601612c91565b9150509250929050565b634e487b7160e01b600052603260045260246000fd5b634e487b7160e01b600052601160045260246000fd5b80820180821115610ad457610ad4612dd7565b600060018201612e1257612e12612dd7565b5060010190565b81810381811115610ad457610ad4612dd7565b600060208284031215612e3e57600080fd5b81516117ec8161286c565b6020808252603e908201527f4372656174696f6e4e46543a20756e61626c6520746f2073656e642076616c7560408201527f652c20726563697069656e74206d617920686176652072657665727465640000606082015260800190565b600181811c90821680612eba57607f821691505b602082108103612eda57634e487b7160e01b600052602260045260246000fd5b50919050565b6020808252602d908201527f4552433732313a2063616c6c6572206973206e6f7420746f6b656e206f776e6560408201526c1c881bdc88185c1c1c9bdd9959609a1b606082015260800190565b600060208284031215612f3f57600080fd5b81516bffffffffffffffffffffffff811681146117ec57600080fd5b8082028115828204841417610ad457610ad4612dd7565b600082612f8f57634e487b7160e01b600052601260045260246000fd5b500490565b60008351612fa68184602088016127f0565b835190830190612fba8183602088016127f0565b01949350505050565b60208082526025908201527f4552433732313a207472616e736665722066726f6d20696e636f72726563742060408201526437bbb732b960d91b606082015260800190565b60208082526032908201527f4552433732313a207472616e7366657220746f206e6f6e20455243373231526560408201527131b2b4bb32b91034b6b83632b6b2b73a32b960711b606082015260800190565b6001600160a01b038581168252841660208201526040810183905260806060820181905260009061308d90830184612814565b9695505050505050565b6000602082840312156130a957600080fd5b81516117ec816127bd565b634e487b7160e01b600052603160045260246000fdfea2646970667358221220bff16986f383d265536e309f154ac096eda25eb2aeedcccdedd930116bf7687464736f6c63430008120033",
  "linkReferences": {},
  "deployedLinkReferences": {}
}